{
  "contractName": "Article",
  "abi": [
    {
      "constant": true,
      "inputs": [],
      "name": "hash",
      "outputs": [
        {
          "name": "",
          "type": "string"
        }
      ],
      "payable": false,
      "stateMutability": "view",
      "type": "function"
    },
    {
      "constant": true,
      "inputs": [
        {
          "name": "",
          "type": "address"
        }
      ],
      "name": "didVote",
      "outputs": [
        {
          "name": "",
          "type": "bool"
        }
      ],
      "payable": false,
      "stateMutability": "view",
      "type": "function"
    },
    {
      "constant": true,
      "inputs": [],
      "name": "up",
      "outputs": [
        {
          "name": "",
          "type": "uint256"
        }
      ],
      "payable": false,
      "stateMutability": "view",
      "type": "function"
    },
    {
      "constant": true,
      "inputs": [],
      "name": "down",
      "outputs": [
        {
          "name": "",
          "type": "uint256"
        }
      ],
      "payable": false,
      "stateMutability": "view",
      "type": "function"
    },
    {
      "constant": true,
      "inputs": [
        {
          "name": "",
          "type": "address"
        }
      ],
      "name": "voteOf",
      "outputs": [
        {
          "name": "",
          "type": "bool"
        }
      ],
      "payable": false,
      "stateMutability": "view",
      "type": "function"
    },
    {
      "inputs": [
        {
          "name": "_newsHash",
          "type": "string"
        }
      ],
      "payable": false,
      "stateMutability": "nonpayable",
      "type": "constructor"
    },
    {
      "constant": false,
      "inputs": [
        {
          "name": "_vote",
          "type": "bool"
        }
      ],
      "name": "doVote",
      "outputs": [],
      "payable": false,
      "stateMutability": "nonpayable",
      "type": "function"
    }
  ],
  "bytecode": "0x608060405234801561001057600080fd5b50604051610595380380610595833981018060405281019080805182019291905050508060029080519060200190610049929190610050565b50506100f5565b828054600181600116156101000203166002900490600052602060002090601f016020900481019282601f1061009157805160ff19168380011785556100bf565b828001600101855582156100bf579182015b828111156100be5782518255916020019190600101906100a3565b5b5090506100cc91906100d0565b5090565b6100f291905b808211156100ee5760008160009055506001016100d6565b5090565b90565b610491806101046000396000f300608060405260043610610078576000357c0100000000000000000000000000000000000000000000000000000000900463ffffffff16806309bd5a601461007d578063354d91de1461010d57806387caea7814610168578063d5a49e0114610197578063d8337928146101c2578063f3b35100146101ed575b600080fd5b34801561008957600080fd5b50610092610248565b6040518080602001828103825283818151815260200191508051906020019080838360005b838110156100d25780820151818401526020810190506100b7565b50505050905090810190601f1680156100ff5780820380516001836020036101000a031916815260200191505b509250505060405180910390f35b34801561011957600080fd5b5061014e600480360381019080803573ffffffffffffffffffffffffffffffffffffffff1690602001909291905050506102e6565b604051808215151515815260200191505060405180910390f35b34801561017457600080fd5b50610195600480360381019080803515159060200190929190505050610306565b005b3480156101a357600080fd5b506101ac610439565b6040518082815260200191505060405180910390f35b3480156101ce57600080fd5b506101d761043f565b6040518082815260200191505060405180910390f35b3480156101f957600080fd5b5061022e600480360381019080803573ffffffffffffffffffffffffffffffffffffffff169060200190929190505050610445565b604051808215151515815260200191505060405180910390f35b60028054600181600116156101000203166002900480601f0160208091040260200160405190810160405280929190818152602001828054600181600116156101000203166002900480156102de5780601f106102b3576101008083540402835291602001916102de565b820191906000526020600020905b8154815290600101906020018083116102c157829003601f168201915b505050505081565b60046020528060005260406000206000915054906101000a900460ff1681565b6000339050600460008273ffffffffffffffffffffffffffffffffffffffff1673ffffffffffffffffffffffffffffffffffffffff16815260200190815260200160002060009054906101000a900460ff161561036257600080fd5b811561037957600160005401600081905550610386565b6001600054036000819055505b81600360008373ffffffffffffffffffffffffffffffffffffffff1673ffffffffffffffffffffffffffffffffffffffff16815260200190815260200160002060006101000a81548160ff0219169083151502179055506001600460008373ffffffffffffffffffffffffffffffffffffffff1673ffffffffffffffffffffffffffffffffffffffff16815260200190815260200160002060006101000a81548160ff0219169083151502179055505050565b60005481565b60015481565b60036020528060005260406000206000915054906101000a900460ff16815600a165627a7a72305820b699660168cd00bc669ef7e19609e214e72fd459d2d7350b00ff9a359242c9220029",
  "source": "pragma solidity ^0.4.23;\r\n\r\nimport './math/SafeMath.sol';\r\n\r\ncontract Article {\r\n    using SafeMath for uint256;\r\n\r\n    uint256 public up;\r\n    uint256 public down;\r\n\r\n    string public hash;\r\n\r\n    mapping(address => bool) public voteOf;\r\n    mapping(address => bool) public didVote;\r\n\r\n    constructor(string _newsHash) public {\r\n        hash = _newsHash;\r\n    }\r\n\r\n    function doVote(bool _vote) public {\r\n        address voter = msg.sender;\r\n        if (didVote[voter]) {\r\n            revert();\r\n        }\r\n        if (_vote) {\r\n            up = up + 1;\r\n        }\r\n        else {\r\n            up = up - 1;\r\n        }\r\n        voteOf[voter] = _vote;\r\n        didVote[voter] = true;\r\n    }\r\n\r\n}\r\n",
  "sourcePath": "D:\\Projects\\hacktm\\2018\\there\\hacktm2018-eth\\eth-solidity\\contracts\\Article.sol",
  "compiler": {
    "name": "solc",
    "version": "0.4.23+commit.124ca40d.Emscripten.clang"
  },
  "schemaVersion": "2.0.0",
  "updatedAt": "2018-05-11T23:52:11.082Z"
}